:100000000C94EC070C9433080C9433080C943308CC
:100010000C9433080C9433080C9433080C94330874
:100020000C9433080C9433080C948E220C946123A6
:100030000C949B190C9433080C9433080C943308DB
:100040000C9433080C9433080C9433080C94330844
:100050000C9433080C94FC190C9433080C9433085A
:100060000C9433080C9433080C9433080C94330824
:100070000C9433080C9433080C9433080C94330814
:100080000C9433080C9433080C9433080C94330804
:100090000C9433080C9433080C9433080C943308F4
:1000A0000C9433080C9433080C94330829003A005C
:1000B0003C003E0040004200440046000151000068
:1000C0003B003D003F004100430045004700000069
:1000D00035001F0021002300250027002E004900C5
:1000E0004B001E0020002200240026002D002A00C4
:1000F0004A0000002B001A0015001C000C00130021
:1001000030004C004E0014000800170018001200C8
:100110002F0000004D0000003900160009000B0000
:100120000E003300310000000000040007000A0048
:100130000D000F003400280000000000E1001D0049
:100140000600050010003700E10000000000360244
:100150001B0019001100360038000000520000009A
:10016000E000E20000002C000000E200003050003F
:100170004F00E3000000000000000000E300E0008A
:100180005100000001000100010001000100010018
:100190000100010001000000010001000100010058
:1001A0000100010001000000010001000100010048
:1001B0000100010001000100010001000100010037
:1001C0000100010001000100010000000100010028
:1001D0000100010001000100010001000100010017
:1001E0000100010001000100010000000100000009
:1001F00001000100010001000100010001000000F8
:1002000000000100010001000100010001000100E7
:1002100000000000010001000100010001000100D8
:1002200001000000000001000100010001000100C8
:10023000010000000100000001000100000000704A
:1002400000000100010001000100010000000000A9
:100250000000000001000100010000000100010099
:100260000100010001000100010001000100000087
:100270000100010001000100010001000100000077
:100280000100010001000100010001000100010066
:100290000100010001000100010001000100010056
:1002A0000100000001000100010001000100010047
:1002B0000100010001000100010001000100010036
:1002C0000100000001000000010001000100010028
:1002D0000100010001000000000001000100010018
:1002E0000100010001000100000000000100010008
:1002F00001000100010001000100000000000100F8
:1003000001000100010001000100000001000000E7
:1003100001000100000001000000010001000100D7
:1003200001000100000000000000000001000100C9
:1003300001000000010001000100010001000100B6
:1003400001000100010000000100010001000100A6
:100350000100010001000000010001000100010096
:100360000100010001000100010001000100010085
:100370000100010001000100010000000100010076
:100380000100010001000100010001000100010065
:100390000100010001000100010000000100000057
:1003A0000100010001000100010001000100000046
:1003B0000000010001000100010001000100010036
:1003C0000000000001000100010001000100010027
:1003D0000100000000000100010001000100010017
:1003E0000100000001000000010001000000010008
:1003F00000000100010001000100010000000000F8
:1004000000000000010001000100000001000100E7
:1004100001000100010001000100010001000000D5
:1004200001000100010001000100010001000000C5
:1004300001000100010001000100010001000100B4
:1004400001000100010001000100010001000100A4
:100450000100000001000100010001000100010095
:100460000100010001000100010001000100010084
:100470000100000001000000010001000100010076
:100480000100010001000000000001000100010066
:100490000100010001000100000000000100010056
:1004A0000100010001000100010000000000010046
:1004B0000100010001000100010000000100000036
:1004C0000100010000000100000001000100010026
:1004D0000100010000000000000000000100010018
:1004E0000100000001000100010001000100010005
:1004F00001000100010000000100010001000100F5
:1005000001000100010000000100010001000100E4
:1005100001000100010001000100010001000100D3
:1005200001000100010001000100000001000100C4
:1005300001000100010001000100010001000100B3
:1005400001000100010001000100000001000000A5
:100550000100010001000100010001000100000094
:100560000000010001000100010001000100010084
:100570000000000001000100010001000100010075
:100580000100000000000100010001000100010065
:100590000100000001000000010001000000010056
:1005A0000000010001000100010001000000000046
:1005B0000000000001000100010000000100010036
:1005C0000100010001000100010001000100000024
:1005D0000100010001000100010001000100000014
:1005E0000100010001000100010001000100010003
:1005F00001000100010001000100010001000100F3
:1006000001000000010001000100010001000100E3
:1006100001000100010001000100010001000100D2
:1006200001000000010000000100010001000100C4
:1006300001000100010000000000010001000100B4
:1006400001000100010001000000000001000100A4
:100650000100010001000100010000000000010094
:100660000100010001000100010000000100000084
:100670000100010000000100000001000100010074
:100680000100010000000000000000000100010066
:100690000100000001000100010001000100010053
:1006A0000100010001000000010001000100010043
:1006B0000100010001000000010001000100010033
:1006C0000100010001000100010001000100010022
:1006D0000100010001000100010000000100010013
:1006E0000100010001000100010001000100010002
:1006F00001000100010001000100000001000000F4
:1007000001000100010001000100010001000000E2
:1007100000000100010001000100010001000100D2
:1007200000000000010001000100010001000100C3
:1007300001000000000001000100010001000100B3
:1007400001000000010000000100010000000100A4
:100750000000010001000100010001000000000094
:100760000000000001000100010000000100010084
:100770000100010001000100010001000100000072
:100780000100010001000100010001000100000062
:100790000100010001000100010001000100010051
:1007A0000100010001000100010001000100010041
:1007B0000100000001000100010001000100010032
:1007C0000100010001000100010001000100010021
:1007D0000100000001000000010001000100010013
:1007E0000100010001000000000001000100010003
:1007F00001000100010001000000000001000100F3
:1008000001000100010001000100000000000100E2
:1008100001000100010001000100000001000000D2
:1008200001000100000001000000010001000100C2
:1008300001000100000000000000000001000100B4
:1008400001000000010001000100010001000100A1
:100850000100010001000000010001000100010091
:100860000100010001000000010001000100010081
:100870000100010001000100010001000100010070
:100880000100010001000100010000000100010061
:100890000100010001000100010001000100010050
:1008A0000100010001000100010000000100000042
:1008B0000100010001000100010001000100000031
:1008C0000000010001000100010001000100010021
:1008D0000000000001000100010001000100010012
:1008E0000100000000000100010001000100010002
:1008F00001000000010000000100010000000100F3
:1009000000000100010001000100010000000000E2
:1009100000000000010001000100000001000100D2
:1009200001000100010001000100010001000000C0
:1009300001000100010001000100010001000000B0
:10094000010001000100010001000100010001009F
:10095000010001000100010001000100010001008F
:100960000100000001000100010001000100010080
:10097000010001000100010001000100010001006F
:100980000100000001000000010001000100010061
:100990000100010001000000000001000100010051
:1009A0000100010001000100000000000100010041
:1009B0000100010001000100010000000000010031
:1009C0000100010001000100010000000100000021
:1009D0000100010000000100000001000100010011
:1009E0000100010000000000000000000100010003
:1009F00001000000010001000100010001000100F0
:100A000001000100010000000100010001000100DF
:100A100001000100010000000100010001000100CF
:100A200001000100010001000100010001000100BE
:100A300001000100010001000100000001000100AF
:100A4000010001000100010001000100010001009E
:100A50000100010001000100010000000100000090
:100A6000010001000100010001000100010000007F
:100A7000000001000100010001000100010001006F
:100A80000000000001000100010001000100010060
:100A90000100000000000100010001000100010050
:100AA0000100000001000000010001000000010041
:100AB0000000010001000100010001000000000031
:100AC0000000000001000100010000000100010021
:100AD000010001000100010001000100010000000F
:100AE00001000100010001000100010001000000FF
:100AF00001000100010001000100010001000100EE
:100B000001000100010001000100010001000100DD
:100B100001000000010001000100010001000100CE
:100B200001000100010001000100010001000100BD
:100B300001000000010000000100010001000100AF
:100B4000010001000100000000000100010001009F
:100B5000010001000100010000000000010001008F
:100B6000010001000100010001000000000001007F
:100B7000010001000100010001000000010000006F
:100B8000010001000000010000000100010001005F
:100B90000100010000000000000000000100010051
:100BA000010000000100010001000100010001003E
:100BB000010001000100000001000100010001002E
:100BC000010001000100000001000100010001001E
:100BD000010001000100010001000100010001000D
:100BE00001000100010001000100000001000100FE
:100BF00001000100010001000100010001000100ED
:100C000001000100010001000100000001000000DE
:100C100001000100010001000100010001000000CD
:100C200000000100010001000100010001000100BD
:100C300000000000010001000100010001000100AE
:100C4000010000000000010001000100010001009E
:100C5000010000000100000001000100000001008F
:100C6000000001000100010001000100000000007F
:100C7000000000000100010001000000010001006F
:100C8000010001000100010001000100010000005D
:100C9000010001000100010001000100010000004D
:100CA000010001000100010001000100010001003C
:100CB000010001000100010001000100010001002C
:100CC000010000000100010001000100010001001D
:100CD000010001000100010001000100010001000C
:100CE00001000000010000000100010001000100FE
:100CF00001000100010000000000010001000100EE
:100D000001000100010001000000000001000100DD
:100D100001000100010001000100000000000100CD
:100D200001000100010001000100000001000000BD
:100D300001000100000001000000010001000100AD
:100D4000010001000000000000000000010001009F
:100D5000010000000100010001000100010001008C
:100D6000010001000100000001000100010001007C
:100D7000010001000100000001000100010001006C
:100D8000010001000100010001000100010001005B
:100D9000010001000100010001000000010001004C
:100DA000010001000100010001000100010001003B
:100DB000010001000100010001000000010000002D
:100DC000010001000100010001000100010000001C
:100DD000000001000100010001000100010001000C
:100DE00000000000010001000100010001000100FD
:100DF00001000000000001000100010001000100ED
:100E000001000000010000000100010000000100DD
:100E100000000100010001000100010000000000CD
:100E200000000000010001000100000012036B003F
:100E30006500790062006F006100720064000000CC
:100E4000160371006D006B006200750069006C0094
:100E500064006500720000000403090409026D00CB
:100E6000040100A0FA0904000001030101000921A6
:100E7000110100012240000705810308000A09044E
:100E800001000103010200092111010001224D00AE
:100E90000705820308000A0904020001030000009C
:100EA0000921110100012236000705830308000A09
:100EB00009040300010300000009211101000122BF
:100EC0003900070584032000011201100100000011
:100ED00008EDFE606001000102000105010906A1A4
:100EE00001050719E029E71500250195087501811D
:100EF00002050819012905950575019102950175ED
:100F00000391010507190029F71500250195F875CA
:100F1000018102C005010980A10185021601002698
:100F200003001A81002A8300751095018100C00515
:100F30000C0901A1018503160100269C021A01007B
:100F40002A9C02751095018100C005010902A101CA
:100F50000901A100050919012905150025019505BB
:100F6000750181029501750381010501093009317F
:100F70001581257F95027508810609381581257F21
:100F8000950175088106050C0A38021581257F95A3
:100F90000175088106C0C005010906A101050719F0
:100FA000E029E71500250195087501810295017575
:100FB000088101050819012905950575019102951A
:100FC00001750391010507190029FF150026FF008F
:100FD000950675088100C00011241FBECFEFDAE02E
:100FE000DEBFCDBF04B603FE27C080918C02909176
:100FF0008D02A0918E02B0918F028730904BA74056
:10100000B04BD1F410928C0210928D0210928E028D
:1010100010928F0214BE84B7877F84BF0FB6F894F6
:10102000A8958091600088618093600010926000B4
:101030000FBEE0E0F8E3099511E0A0E0B1E0ECE9D3
:10104000FDE402C005900D92AC33B107D9F722E060
:10105000ACE3B1E001C01D92AC38B207E1F70E94E9
:10106000E41F0C94A0260C94000090E080E008950A
:101070000895089581E00895089581E008950C94FD
:101080003A080E94EC112FEF84E39CE0215080404D
:101090009040E1F700C000000C941F1AEF92FF92FD
:1010A0000F931F93CF93DF938C01FC01E080F180BD
:1010B0008091A001811140C082818823C1F1C701C4
:1010C0000E947117C82F682FC7010E941A17B70115
:1010D0008C2F0E948609EC01B8010E943F088823EA
:1010E00009F44BC0B801CE010E948F0B882309F48C
:1010F00044C0C531F0E7DF0720F5C23080E7D807EC
:1011000008F04DC0C115E0E7DE0791F1C130D047CE
:10111000E1F181E080933E0180933F01C801DF91BE
:10112000CF911F910F91FF90EF900C943D08C70154
:101130000E944817C82FCBCFC7010E947117B70173
:10114000C8CFCC3380E7D80709F49BC0CD33D04754
:1011500001F7F8018281882309F4BAC010923F0197
:101160000E94CB1990933D0180933C0180E296C090
:10117000F801828181110E94410880E0DF91CF91C6
:101180001F910F91FF90EF900895F80182818823BD
:10119000A1F380914C02816080934C02EECFF80164
:1011A0008281882309F4BACF0E942C19811102C0D0
:1011B0000E9412190E94491990E090937E02809338
:1011C0007D02FE01E350F04780917D028160E231B3
:1011D000F10538F4EE55F94D0C94502680917D02BE
:1011E000826080937D0280917D020E944D190E9451
:1011F000EC11C3CF80917D028460F3CF80917D029A
:101200008860EFCF80917D028061EBCF80917D027D
:101210008062E7CF80917D028064E3CF80917D0280
:101220008068DFCF80917D028C60DBCF80917D0272
:101230008E7FD7CF80917D028D7FD3CF80917D022D
:101240008B7FCFCF80917D02877FCBCF80917D0236
:101250008F7EC7CF80917D028F7DC3CF80917D022D
:101260008F7BBFCF80917D028F77BBCF80917D0236
:10127000837FB7CF90917D02892F97FB87F98058A4
:10128000B0CFF8018281882361F010923E010E9464
:10129000CB1990933D0180933C0182E00E94510F55
:1012A0006CCF80913E0181110FC080913C019091E3
:1012B0003D010E94D719883C910530F486E20E94D6
:1012C000260E86E20E94020F82E00E94580F55CF40
:1012D00080913F0181110FC080913C0190913D01AF
:1012E0000E94D719883C910530F487E20E94260EAF
:1012F00087E20E94020F80E2E8CF0C94DE0B0C9490
:10130000E00B0C943C080C9481090895972F70E031
:1013100029E0929F600D711D1124FB019CE6899FBD
:10132000E00DF11D1124EE0FFF1FE455FF4F8591D5
:1013300094910895FC01EE0FFF1FE45DF14F85913C
:10134000949108950E9486090E94130B9C018115B7
:1013500040E4940708F097C0211580E3380708F0AF
:10136000FAC0203E310508F074C0203C310508F079
:10137000E5C0283A310588F4253A310508F0E2C085
:101380002130310509F477C0C9010497813A9105EC
:1013900008F471C030E020E06EC0C901885A91099C
:1013A0004597C0F7283A310509F4FEC0293A3105BE
:1013B00009F4FDC02A3A310509F4FCC02B3A310585
:1013C00009F4FBC02C3A310509F4FAC02B3B310576
:1013D00009F4F9C02C3B310509F4F8C02D3A310568
:1013E00009F4F7C0203B310509F4F6C02E3A310567
:1013F00009F4F5C02F3A310509F4F4C0213B310559
:1014000009F4F3C0223B310509F4F2C0233B310556
:1014100009F4F1C0243B310509F4F0C0253B310546
:1014200009F4EFC0263B310509F4EEC0273B310536
:1014300009F4EDC0283B310509F4ECC0293B310526
:1014400009F4EBC02A3B310509F4EAC020E034E49A
:1014500012C0211590E2390780F42F3F310509F0C1
:1014600050F4283E310538F0C901805F910930659C
:10147000409708F08FCFC9010895C9019F700E945D
:101480009A099C01F8CF8115944508F041C02115B7
:1014900083E5380708F06AC0211592E5390738F569
:1014A000211541E5340708F05CC0211580E53807B7
:1014B00008F454C0C90134E0969587953A95E1F750
:1014C0008370422F46954695437090E2499FA00154
:1014D0001124582B822F837021E030E002C0220FAC
:1014E000331F8A95E2F7242B352B3C68C4CFC90102
:1014F0008370992741E050E002C0440F551F8A9540
:10150000E2F72695269580E2289F90011124EBCFE3
:10151000211596E5390748F4922F8827211535457E
:10152000C8F59C01246F306AA6CFC90190563F7060
:101530008115904108F02ECF30629DCFC901805CAB
:1015400091099DCF253A310549F1263A310549F5F2
:1015500022E830E490CF3327306C8DCF3F70306A73
:101560008ACF322F2227216F306A85CFC90183703D
:10157000992741E050E002C0440F551F8A95E2F7D9
:101580002695269580E2289F90011124242B352B47
:101590003A6871CF88279F719C01CECF21E830E453
:1015A0006ACF23E830E467CF22EE34E464CF29EE3B
:1015B00034E461CF2AEE34E45ECF25EB34E45BCF34
:1015C00026EB34E458CF23EB34E455CF24EB34E45A
:1015D00052CF27EB34E44FCF2CEC34E44CCF2DEC3E
:1015E00034E449CF23E835E446CF2AE835E443CF55
:1015F00022E935E440CF24E935E43DCF21E236E469
:101600003ACF23E236E437CF24E236E434CF25E282
:1016100036E431CF26E236E42ECF27E236E42BCF74
:101620002AE236E428CF803E910581F1C8F4813367
:10163000910509F462C048F48932910509F456C055
:101640008A32910509F460C0089589339105B9F093
:1016500082389105A1F08533910509F440C00895C1
:10166000863E910561F138F4823E9105B1F0833EEA
:101670009105E1F00895873E910551F1089520917B
:101680007D022370D9F080EE90E0089520917D02D4
:1016900020FF14C089E390E0089520917D0222FF8D
:1016A0000DC024FD09C083EE90E0089520917D02D5
:1016B00022FD31C024FF02C090E080E00895209117
:1016C0007D0223FFFBCF24FDF7CF87EE90E0089546
:1016D00020917D0223FFEECF86EE90E008952091C9
:1016E0007D0225FFEBCF89E290E0089520917D02F5
:1016F00025FFE4CF85E390E0089520917D0226FF49
:10170000DDCF8AE290E0089520917D0226FFD6CFBA
:1017100081E390E0089582EE90E0089508950F939C
:101720001F93CF938C01FB018281811106C0C1E020
:101730008C2FCF911F910F910895C0914D01C11130
:1017400025C00531104799F70E948E0B81E08093E8
:101750004D010E94CB1990934C0180934B01109244
:1017600040011092420110924101109244011092E6
:1017700043011092460110924501109248011092C7
:10178000470110924A0110924901D2CF80914B013A
:1017900090914C010E94D719883C910540F68091A8
:1017A0004001E82FF0E0EE0FFF1FEF5BFE4F1183CB
:1017B00000838F5F80934001C0E0BACF0C9438085B
:1017C0000C94390885B7806885BF85B7806885BF68
:1017D000ACE1B1E061E070E08D91E82FE295EF704F
:1017E000F0E041A18F709B0101C0220F8A95EAF7BA
:1017F000922F9095942391A382A1822B82A381E0C2
:10180000A832B80749F7A3E1B1E061E070E08D913B
:10181000E82FE295EF70F0E041A18F709B0101C0CD
:10182000220F8A95EAF7922F9095942391A382A193
:10183000822B82A381E0AC31B80749F7E6E6F1E0FC
:10184000AEE4B1E08EE791E0119211921D921D92EB
:101850008E179F07C9F70C947D092F923F924F92E4
:101860005F926F927F928F929F92AF92BF92CF9230
:10187000DF92EF92FF920F931F93CF93DF930EE4CB
:1018800011E08CE1C82E81E0D82E1801EE24E394FB
:10189000F12C66246394D1018D909D901D011E92C0
:1018A0001E92E60189916E01E82FE295EF70F0E05B
:1018B00091A18F70970101C0220F8A95EAF7892FB5
:1018C000822B81A382A1722E7094872182A3D0EAF9
:1018D000DA95F1F763E171E090E080E0EB01599077
:1018E000BE01452D42954F7050E0EA0148A0AD90F1
:1018F000BC901197552D5F70E70102C0CC0FDD1F22
:101900005A95E2F7AE01442109F059C0A701082E0B
:1019100002C0440F551F0A94E2F74A295B29119629
:101920005C934E93019689309105C1F681A178228E
:1019300071A282A1282B22A38D919C9188169906D1
:1019400041F060927E010E94CB19909380018093B8
:101950007F01D6E62D16D1E03D0609F09CCF80919F
:101960007E018823B1F080917F01909180010E94D7
:10197000D719069770F0E6E6F1E0D8018D919D91B8
:101980008D0181939193B1E006361B07B1F7109258
:101990007E010E947F0981E0DF91CF911F910F911D
:1019A000FF90EF90DF90CF90BF90AF909F908F907F
:1019B0007F906F905F904F903F902F90089550E0F0
:1019C00040E0ABCFE82FF0E0EE0FFF1FEA59FE4FEB
:1019D0008081918108950895909386018093850177
:1019E0000895E0918501F0918601309721F00190F2
:1019F000F081E02D099480E00895E0918501F09157
:101A00008601309721F00280F381E02D099408953A
:101A1000E0918501F0918601309721F00480F581F5
:101A2000E02D0994089520918301309184012817B5
:101A3000390771F09093840180938301E0918501CF
:101A4000F0918601309721F00680F781E02D09940E
:101A5000089520918101309182012817390771F092
:101A60009093820180938101E0918501F09186013C
:101A7000309721F00084F185E02D099408950895B0
:101A80000C943F0D0E94C2190E94E20B0C948C1A18
:101A90005F926F927F928F929F92AF92BF92CF92FE
:101AA000DF92EF92FF920F931F93CF93DF9300D0BB
:101AB00000D00F92CDB7DEB70E942D0C98E8A92E6A
:101AC00091E0B92E10E000E088248394912C502EF0
:101AD000802F0E94E20C7C01F501C190D1905F0142
:101AE000C816D90609F45DC080914C0281FD0E94A0
:101AF000EB0C90E080E0CE24DF243401082E02C0FD
:101B0000660C771C0A94E2F7960126213721232BD5
:101B100009F442C089835A82E620F72081E0EF2849
:101B200009F480E08B830E94CB198160782F9D831C
:101B30008C8349815A816B818D810E94FD0D000F3C
:101B4000111FF801E857FE4F8081918168267926A0
:101B5000718260820E94391D0E94F10C9091870170
:101B60008917B1F10E94F10C809387010F900F90BB
:101B70000F900F900F90DF91CF911F910F91FF90D9
:101B8000EF90DF90CF90BF90AF909F908F907F901D
:101B90006F905F900C94830901968930910509F04C
:101BA000ACCF0F5F1F4F0C30110509F090CF8FEFB6
:101BB00089838A831B820E94CB198160782F9D8341
:101BC0008C8349815A816B818D810E94FD0DC2CF2A
:101BD0000F900F900F900F900F90DF91CF911F916A
:101BE0000F91FF90EF90DF90CF90BF90AF909F90BC
:101BF0008F907F906F905F900895CF93DF93CDB7D4
:101C0000DEB72B970FB6F894DEBF0FBECDBF4F8364
:101C1000588769877A878B871E8285E0FE01379611
:101C2000DE01119601900D928A95E1F749815A8162
:101C30006B817C818D819E812B960FB6F894DEBFDF
:101C40000FBECDBFDF91CF910C947414882309F49B
:101C5000D8C0823871F40E94F10C81FDD2C089E3B2
:101C60000E9419180E94E31889E30E9456180C94E8
:101C7000E318833859F40E94F10C80FDC2C083E55B
:101C80000E9419180E94E31883E5EFCF843859F4B5
:101C90000E94F10C82FDB5C087E40E9419180E94D1
:101CA000E31887E4E2CF9CEF980F913A18F40E9472
:101CB0001918DDCF90E2980F983050F4877091E0BA
:101CC00001C0990F8A95EAF7892F0E949A18CFCF01
:101CD0009BE5980F933070F4853A31F0863A39F0ED
:101CE00083E890E00C94130D81E890E0FBCF82E84C
:101CF00090E0F8CF98E5980F953108F082C0883AC7
:101D000009F440C0893A09F440C08A3A09F440C055
:101D10008B3A09F440C08C3A09F440C08B3B09F47B
:101D200040C08C3B09F440C08D3A09F440C0803B70
:101D300009F440C08E3A09F440C08F3A09F440C01B
:101D4000813B09F440C0823B09F440C0833B09F465
:101D500040C0843B09F440C0853B09F440C0863B49
:101D600009F440C0873B09F440C0883B09F440C0F7
:101D7000893B09F440C08A3B09F440C090E080E010
:101D80000C94290D82EE90E0FBCF89EE90E0F8CF25
:101D90008AEE90E0F5CF85EB90E0F2CF86EB90E015
:101DA000EFCF83EB90E0ECCF84EB90E0E9CF87EBD3
:101DB00090E0E6CF8CEC90E0E3CF8DEC90E0E0CFCC
:101DC00083E891E0DDCF8AE891E0DACF82E991E023
:101DD000D7CF84E991E0D4CF81E292E0D1CF83E202
:101DE00092E0CECF84E292E0CBCF85E292E0C8CF02
:101DF00086E292E0C5CF87E292E0C2CF8AE292E02B
:101E0000BFCF0895882309F44BC0823871F40E9433
:101E1000F10C81FF45C089E30E9419180E94E31864
:101E200089E30E9456180C94E318833859F40E94F1
:101E3000F10C80FF35C083E50E9419180E94E31859
:101E400083E5EFCF843859F40E94F10C82FF28C05B
:101E500087E40E9419180E94E31887E4E2CF9CEF00
:101E6000980F913AF0F290E2980F983050F4877002
:101E700091E001C0990F8A95EAF7892F0E94A01876
:101E8000D2CF9BE5980F933020F490E080E00C9443
:101E9000130D885A853120F490E080E00C94290DD0
:101EA0000895882321F00E949A180C94E31808954D
:101EB000882321F00E94A0180C94E31808958F92B3
:101EC0009F92AF92BF92DF92EF92FF920F931F9378
:101ED000CF93DF9300D000D00F92CDB7DEB77C0157
:101EE0006D837983FC01058102950F7012811111B8
:101EF0000E94B9180E941218D82E882371F011235D
:101F0000A1F08D81805E883080F082E00E94FC1715
:101F10000E94121891E0D82ED926E981E295EF703F
:101F2000F0E0EC54F94D0C945026D12CF6CF0981F9
:101F30000F70F981F07F11F00295007F1123B1F04D
:101F4000002361F08D81805E883018F02D81211191
:101F500009C0802F0E949A180E94E3188D810E9468
:101F6000260E15C0802F0E94AB18F6CF8D810E94DF
:101F7000020F002361F08D81805E883018F03D8172
:101F8000311129C0802F0E94A0180E94E318DD2083
:101F900009F4D3C10E94EF1780FDCFC1F70112826F
:101FA0000E94E9170E943216C7010E94AE110E94DA
:101FB000E9170F900F900F900F900F90DF91CF9136
:101FC0001F910F91FF90EF90DF90BF90AF909F9087
:101FD0008F900C945416802F0E94B118D6CF49814F
:101FE0004F70B42E5981507F503219F0B29480EF67
:101FF000B8228D81882369F0813029F1112369F19C
:10200000002359F0F701858180FFA8CF8F70858369
:1020100004C0112361F0011104C08B2D0E94510FE7
:10202000B6CF8B2D0130D1F70E94CD18B0CF011162
:1020300006C00E94D0188B2D0E94580FA8CF0130E7
:1020400009F4A5CFF6CF112321F0063008F09FCF79
:10205000E4CF053008F09BCFEECF002361F38D81F4
:102060000E94020F94CF898186958695837069F0CE
:10207000813009F08CCF8D8199819370111102C04C
:1020800090E080E00E94290D82CF8D81998193702C
:10209000111102C090E080E00E94130D78CF8D8175
:1020A000112329F00E94471C0E942E1D70CF0E9410
:1020B000AF1CFACF8981837009F05FC0111167CF1F
:1020C0002D81229526952770220F220F8D818F70EA
:1020D00090E0B0E0A0E04C015D01022E04C0880C4D
:1020E000991CAA1CBB1C0A94D2F7FD8160E070E029
:1020F000CB01F4FF0FC06FE070E080E090E004C01F
:10210000660F771F881F991F2A95D2F760957095E3
:102110008095909529812695269523702D832230D0
:10212000B1F0233019F19B01AC01282939294A2942
:102130005B2929833A834B835C833D8169817A8162
:102140008B819C813130B1F00E94BF1520CF9B0163
:10215000AC01282939294A295B2929833A834B83F1
:102160005C83CA01B9010E94E91511CF0E94BF1515
:10217000C501B4010E9495150ACF8695112311F06F
:1021800089818170882309F402CF2D8122952695BB
:102190002770220F220F8D818F7090E0B0E0A0E0B9
:1021A0004C015D01022E04C0880C991CAA1CBB1CAA
:1021B0000A94D2F73D8160E070E0CB0134FF0FC09C
:1021C0006FE070E080E090E004C0660F771F881F2A
:1021D000991F2A95D2F760957095809590954981C1
:1021E0004695469543704D834230B1F0433019F126
:1021F0009B01AC01282939294A295B2929833A8383
:102200004B835C833D8169817A818B819C813130F4
:10221000B1F00E94C516BBCE9B01AC01282939291B
:102220004A295B2929833A834B835C83CA01B9011C
:102230000E94EF16ACCE0E94C516C501B4010E94E3
:102240009B16A5CE3D81323F09F447C080F4303F54
:1022500079F1313FD9F1832F805E8031D0F01123A5
:1022600009F456C001117ACE89818F7133C04D8136
:10227000433FD1F1443F99F7112309F43FC08981CD
:102280008F7189830E94321663E089810E94F3175F
:102290007ECE5D815F705D8389818F71112321F016
:1022A0000E9432168D81BACE0E9454168D81C4CE02
:1022B000112341F0053008F06ACE89818F710E94A8
:1022C000791665CE063008F062CEF7CF89818F711E
:1022D000112339F00E9432165ACE89818F71112351
:1022E000C9F30E94541653CE112329F089818F71AE
:1022F0000E941D164CCE0E94131649CE81E00E940A
:10230000FC17023008F443CE82E00E94FC173FCE57
:102310000111A5CE89818F71E4CF49814F706D8104
:10232000C7010E9435080E940E1531CE49814F70B9
:102330006D81C7010E9485092ACE0F900F900F90E2
:102340000F900F90DF91CF911F910F91FF90EF9021
:10235000DF90BF90AF909F908F9008950F931F9341
:10236000CF93DF93EC018B819C81892B29F08881AD
:10237000998189238F3F29F4DF91CF911F910F918C
:102380000895CE010E944E088823B1F368817981B7
:102390008A810E94BF178C010E9419170E948A151A
:1023A000B801CE01DF91CF911F910F910C945F0F77
:1023B0000E94B9180E94CA180E948C180E94E31843
:1023C0000E941F1E0E942E1D90E080E00E94130DAF
:1023D00090E080E00C94290D0E94A8180C94D8116C
:1023E0000E94B317282F892F82958F70903C80F41C
:1023F0008A30B0F4843020F4823090F480E0089584
:102400008630E1F781E0203E88F0213FB9F70EC029
:102410008C3011F08F3091F793FB882780F9089565
:1024200081E0203F39F018F4203E40F70895243F22
:1024300029F7FCCF0895CF93DF9300D000D00F92FF
:10244000CDB7DEB70F900F900F900F900F90DF91E8
:10245000CF910895CF93DF9300D000D000D0CDB7B7
:10246000DEB726960FB6F894DEBF0FBECDBFDF9164
:10247000CF9108951F93CF93DF93E091A10116E0D0
:102480008091A2018E1304C0DF91CF911F91089516
:10249000CE2FD0E01E9FF0011124ED55FE4F40815C
:1024A000518162817381848195810E942A12FE018B
:1024B0003196E770E5CF4091D3015091D4016091FE
:1024C000D5017091D6018091D7019091D8010C94DB
:1024D0002A121F93CF93DF938091D801807FC1F49C
:1024E0008091D5018823A1F08091A101C091A20122
:1024F0006091D3017091D4014091D6015091D701E0
:10250000D62FD723DA01A095B09516E0C81304C0E2
:10251000DF91CF911F91089590E04115510511F081
:10252000DF3F31F401968770F1CF2A0F3B1F17C0B0
:10253000189FF001199FF00D1124ED55FE4F2181D8
:102540002713F0CF20812613EDCF22812111EACF6E
:10255000238134812417350740F3241B350B283C95
:10256000310500F72091D8012F7020612093D80108
:1025700026E0289FF001299FF00D1124E855FE4F19
:1025800080818F708061808383ED91E00E94AE1125
:10259000DF91CF911F910C943A129F92AF92BF920C
:1025A000CF92DF92EF92FF920F931F93CF93DF931F
:1025B000CDB7DEB72B970FB6F894DEBF0FBECDBFF9
:1025C0008C0185E0F801DE01179601900D928A9545
:1025D000E1F7D8014C9111965C9111971296EC900D
:1025E00012978091D6019091D701009709F46BC1A1
:1025F0002091D3013091D401632F62236F3F09F4FE
:1026000062C11396CD90DC909090D501992009F489
:10261000F8C0C816D90608F43FC0F601E81BF90B4C
:10262000CF01FF24F394883C910508F0F12C83ED51
:10263000A82E81E0B82E8091D801982F907FFF209E
:1026400009F4B7C0911180C0FE2C35132AC02413A1
:1026500028C0E11026C08F7080618093D8010E944D
:102660005B12C5010E94AE118091D801D801159668
:102670008C938F2D2B960FB6F894DEBF0FBECDBF77
:10268000DF91CF911F910F91FF90EF90DF90CF904E
:10269000BF90AF909F900895809590958C0D9D1D53
:1026A000C0CFCD2829F0842F85238F3F09F019C191
:1026B00080E0B82FB170DB2EE091A1012091A20142
:1026C00036E080FD1CC0EE20A1F28091D80181602F
:1026D0008093D801F12CCDCF8E2F90E03E9FF0015A
:1026E0001124ED55FE4F6181651306C060816413AE
:1026F00003C062816E11E7CFFC013196E770E213EF
:10270000EBCF4F8358878F8198850E94B317292F6D
:1027100022952F70903260F0225F2F70223078F473
:102720009F7051F0F8019581907F31F4D12C0AC04F
:102730009F7011F08823D1F3805E8830B8F3C80110
:102740000E94AE11FD2C95CF351306C0241304C092
:10275000D801EE2009F47BC04F8358878F8198857C
:102760000E94F011882309F4B8C0EE2009F4B5C026
:102770008091D801803270F02091D3013091D40142
:102780003A8329831B82DD82CC828E83CE0101961F
:102790000E94AE1186E0F801A3EDB1E001900D9228
:1027A0008A95E1F70E9469120E945B12FF24F3945C
:1027B00060CF911113C07C2DDB86CA866E2D8B8570
:1027C0000E941B1283ED91E00E94AE1186E0F5019C
:1027D00011928A95E9F70E945B124BCF3513BCCF5B
:1027E0002413BACFE110B8CFD80115968C93C80145
:1027F0000E94AE1186E0F50111928A95E9F7F92C55
:1028000038CFC816D90688F1B601681B790BCB0101
:10281000F12C883C910508F047C0FE2CEE2009F40D
:102820005CC0351330C024132EC08091D80180FDC8
:1028300021C0982F907FF1F0D80115968C931597B1
:10284000903F39F0982F907F905F8F70892B15966D
:102850008C93C8010E94AE1186E0F801A3EDB1E0AF
:1028600001900D928A95E1F7B6CF809590958C0DE9
:102870009D1DCECF86E0F801A3EDB1E001900D9251
:102880008A95E1F7F6CE4F8358878F8198850E940D
:10289000F01181117FCF8091D80181608093D801A0
:1028A000C8010E94AE11E5CE7C2DDB86CA866E2D56
:1028B0008B850E941B1286E0E3EDF1E0DF011D92A3
:1028C0008A95E9F788CFEE2041F04F8358878F81B2
:1028D00098850E94F01181115DCFC8010E94AE1150
:1028E00065CF81E08E25E5CE1F93CF93DF93CDB7E3
:1028F000DEB72C970FB6F894DEBF0FBECDBF4F8367
:10290000588769877A878B879C87CE0107960E94B4
:10291000CD12882369F08A859B85892B39F04F81F8
:102920005885842F85238F3F09F071C016E05FC062
:1029300086E0FE013796DE01119601900D928A9590
:10294000E1F78A859B85892B89F388859F81892377
:102950008F3F61F32091A20130E0C9010196877099
:1029600099274091A1014817190671F40E94EC11B2
:102970001092A2011092A10186E0E3EDF1E0DF01E7
:102980001D928A95E9F7D2CF96E0929FD001939F4E
:10299000B00D1124AD55BE4FFE01319601900D9240
:1029A0009A95E1F78093A2010E943A12BFCF819FCE
:1029B000C00111248D559E4F0E94CD128823E9F04D
:1029C000E091A1011E9FF0011124ED55FE4F4081C1
:1029D000518162817381848195810E942A12809144
:1029E000A10190E00196877099278093A1018091C1
:1029F000A1019091A2018913DACF2C960FB6F89419
:102A0000DEBF0FBECDBFDF91CF911F9108956985C5
:102A10007A858B859C850E942A1288CFEF92FF923F
:102A20000F931F93CF93DF938C01892B89F0F12CA7
:102A3000EE24E394E8012196F8018491843709F4A7
:102A400057C0A0F4823009F43EC048F48130D1F080
:102A5000DF91CF911F910F91FF90EF9008959CEF20
:102A6000980F9037A8F70E94260E0AC0853709F400
:102A70004CC09CE7980F903758F78F770E94020F51
:102A80008E0116C00E5F1F4FFE01849190E2980FD9
:102A9000983060F48770FE2D01C0FF0F8A95EAF729
:102AA0008F2F0E94BC180E94E31802C00E94260EBD
:102AB0008F2D815008F4BECFEFE9FFE03197F1F799
:102AC00000C00000F6CF0E5F1F4FFE01849190E220
:102AD000980F983050F48770FE2D01C0FF0F8A9533
:102AE000EAF78F2F0E94C218DECF0E94020FE0CFBC
:102AF0000E5F1F4FFE01C491C150D0F28FE99FE0DD
:102B00000197F1F700C00000F7CF0E5F1F4FFE01E5
:102B1000F490CECF089560932302709324028093A3
:102B20002502909326020C94D811CF93DF9300D006
:102B300000D0CDB7DEB769837A838B839C83809185
:102B4000230290912402A0912502B09126022981AE
:102B50003A814B815C81822B932BA42BB52B8093E4
:102B6000230290932402A0932502B09326020F9093
:102B70000F900F900F90DF91CF910C94D811CF93BD
:102B8000DF9300D000D0CDB7DEB769837A838B8323
:102B90009C838091230290912402A0912502B09100
:102BA000260229813A814B815C8182239323A423CD
:102BB000B5238093230290932402A0932502B0931F
:102BC00026020F900F900F900F90DF91CF910C94F1
:102BD000D811CF93DF9300D000D0CDB7DEB7698393
:102BE0007A838B839C838091230290912402A0910D
:102BF0002502B091260229813A814B815C8182278E
:102C00009327A427B5278093230290932402A093AF
:102C10002502B09326020F900F900F900F90DF9136
:102C2000CF910C94D81110921F0210922002109292
:102C30002102109222020C94D81141E050E060E091
:102C400070E004C0440F551F661F771F8A95D2F7A6
:102C500040931F025093200260932102709322023E
:102C60000C94D811282F81E090E0A0E0B0E004C0DF
:102C7000880F991FAA1FBB1F2A95D2F740911F02E8
:102C8000509120026091210270912202842B952B99
:102C9000A62BB72B80931F0290932002A0932102B2
:102CA000B09322020C94D81141E050E060E070E053
:102CB00004C0440F551F661F771F8A95D2F74095B1
:102CC00050956095709580911F0290912002A0917F
:102CD0002102B091220284239523A623B723809357
:102CE0001F0290932002A0932102B09322020C9421
:102CF000D811282F81E090E0A0E0B0E004C0880F58
:102D0000991FAA1FBB1F2A95D2F740911F0250910D
:102D10002002609121027091220284279527A62724
:102D2000B72780931F0290932002A0932102B093B3
:102D300022020C94D811CF93DF9300D000D0CDB7EE
:102D4000DEB769837A838B839C8380911F02909185
:102D50002002A0912102B091220229813A814B8167
:102D60005C81822B932BA42BB52B80931F02909315
:102D70002002A0932102B09322020F900F900F9097
:102D80000F90DF91CF910C94D811CF93DF9300D0A7
:102D900000D0CDB7DEB769837A838B839C83809123
:102DA0001F0290912002A0912102B091220229815C
:102DB0003A814B815C8182239323A423B5238093A2
:102DC0001F0290932002A0932102B09322020F9041
:102DD0000F900F900F90DF91CF910C94D811CF935B
:102DE000DF9300D000D0CDB7DEB769837A838B83C1
:102DF0009C8380911F0290912002A0912102B091AA
:102E0000220229813A814B815C8182279327A42762
:102E1000B52780931F0290932002A0932102B093C4
:102E200022020F900F900F900F90DF91CF910C9492
:102E3000D8110895E82F29E0929FE00D11248E2FDC
:102E4000877041E001C0440F8A95EAF7E695E69560
:102E5000E69585E0E89FF0011124E752FE4F30E04F
:102E600020E070E05191DF011197CB01022E02C0EA
:102E7000969587950A94E2F781708195852784233A
:102E800085278C932F5F3F4F2530310559F70895E3
:102E9000E82F29E0929FE00D11249E2F9770E69570
:102EA000E695E69585E0E89FF0011124E752FE4F94
:102EB00050E040E080E0219130E0092E02C03695DC
:102EC00027950A94E2F721703327042E01C0220FC0
:102ED0000A94EAF7822B4F5F5F4F4530510559F74F
:102EE0000895BF92CF92DF92EF92FF920F931F93BC
:102EF000CF93DF938C01C0901F02D0902002E0900E
:102F00002102F09022028091230290912402A0914C
:102F10002502B0912602C82AD92AEA2AFB2ACFE143
:102F2000D0E0BC2ED701C6010C2E04C0B695A795E3
:102F3000979587950A94D2F780FD0EC0219788F760
:102F4000B12C8B2DDF91CF911F910F91FF90EF90BE
:102F5000DF90CF90BF900895B8018C2F0E94A209F6
:102F6000019761F3EECFCF93DF93D82FC92F0E9443
:102F700071176D2F7C2FDF91CF910C94A2091F93B5
:102F8000CF93DF93162FD72F9091A001992339F07B
:102F9000862F972FDF91CF911F910C94B317882321
:102FA00091F0862F972F0E947117C82F682F812FBD
:102FB0009D2F0E941A17612F7D2F8C2FDF91CF91AB
:102FC0001F910C94A209862F972F0E944817C82F93
:102FD000F2CF8091270285958595859508958091FA
:102FE00027028770089598E0899F90011124622B31
:102FF000609327020C9432169091270280958923C2
:1030000080932702282F277061F4282F082E000CA8
:10301000330B9217130629F08595859585950C94A9
:103020005416089590912702977081E009F480E08A
:103030000895909112019923E1F090917D0297FFFC
:1030400018C0E82FE695E695E695EF3139F1209125
:10305000000130910101E20FF32FF11D877021E093
:1030600030E001C0220F8A95EAF78181822B8183AB
:1030700008952091000130910101F90132969FEFEE
:1030800040E05191851751F09F3F19F4511101C053
:10309000942F4F5F4E31A9F79F3F09F40895290FF0
:1030A000311D97FD3A95F90182830895909112019F
:1030B000992301F190917D0297FF1CC0E82FE695BE
:1030C000E695E695EF3139F120910001309101014B
:1030D000E20FF32FF11D877021E030E0A90102C05B
:1030E000440F551F8A95E2F7CA0180959181892383
:1030F000818308952091000130910101F9013296F8
:10310000205E3F4F9191891303C0DF0111971C92FC
:10311000E217F307B9F7089581E090E0E09100012C
:10312000F0910101E80FF91F10820196803291059C
:10313000A9F7089590914B02982B90934B02089514
:10314000982F909580914B02892380934B0208958C
:1031500010924B02089590914A02982B90934A0244
:103160000895982F909580914A02892380934A026E
:10317000089510924A02089590914902982B9093D5
:1031800049020895982F9095809149028923809350
:1031900049020895109249020895809328020895E3
:1031A0001092280208952091000130910101F90147
:1031B0003196205E3F4F80E0919191118F5FE21731
:1031C000F307D1F70895E0910001F091010180919A
:1031D0004B028083E0910001F09101018081909188
:1031E0004A02892B8083E0910001F09101018081E6
:1031F00090914902892B808390912802992361F054
:10320000E0910001F09101018081892B80830E946F
:10321000D318811110922802809100019091010130
:103220000C94FD0C6DEE7EEF90E080E00E948A260B
:1032300060E082E090E00E94782660E083E090E029
:103240000E94782660E084E090E00E94782660E0AA
:1032500085E090E00C94782690E080E00E94722651
:103260009C0181E02D3E3E4F09F080E0089582E010
:1032700090E00C946A26682F82E090E00C94782607
:1032800083E090E00C946A26682F83E090E00C9431
:10329000782684E090E00C946A26682F84E090E021
:1032A0000C94782680918302843039F110924D027B
:1032B00088E190E020E40FB6F894A8958093600030
:1032C0000FBE2093600080E00E94830983B7817F56
:1032D000846083BF83B7816083BF7894889583B708
:1032E0008E7F83BF0FB6F894A895809160008861A7
:1032F00080936000109260000FBE089508950895B5
:10330000CF930E947E190E942D0C0E947F19C0E06D
:103310008C2F0E94E20C892B31F4CF5FCC30C1F7A7
:1033200080E0CF91089581E0FCCF0E94EC110E94D3
:10333000F10C0C9483091F921FB61F9211248F93D6
:103340009F93AF93BF9380914D02811113C08091E1
:10335000790290917A02A0917B02B0917C02419611
:10336000A11DB11D8093790290937A02A0937B02F4
:10337000B0937C02BF91AF919F918F911F901FBE20
:103380001F90189582E084BD93E095BD9AEF97BD9C
:1033900080936E0008952FB7F894809179029091F0
:1033A0007A02A0917B02B0917C022FBF0895CF9248
:1033B000DF92EF92FF929C014FB7F89480917902CF
:1033C00090917A02A0917B02B0917C024FBF6C0178
:1033D0007D01EE24FF24A90170E060E0C416D5064B
:1033E000E606F70638F0821B930BFF90EF90DF9014
:1033F000CF9008950197F7CF1F921FB61F92112407
:103400008F939F93AF93BF938091790290917A02AB
:10341000A0917B02B0917C020196A11DB11D809309
:10342000790290937A02A0937B02B0937C02BF91C1
:10343000AF919F918F911F901FBE1F9018950E9472
:103440001322F8942FEF87EA91E6215080409040B4
:10345000E1F700C0000087E090EBDC0180938C0274
:1034600090938D02A0938E02B0938F0288E19CE02E
:103470000FB6F894A895809360000FBE90936000FB
:10348000FFCFAF92BF92CF92DF92EF92FF920F9356
:103490001F93CF93C0E0AA24A394B12CE82EF12C63
:1034A0008C2F0E94E20C6C0110E000E0C501002EA0
:1034B00002C0880F991F0A94E2F78C219D21892B65
:1034C00099F0602F7C2F80E00E948609E816F906AB
:1034D00059F481E0CF911F910F91FF90EF90DF9011
:1034E000CF90BF90AF9008950F5F1F4F0930110527
:1034F000E9F6CF5FCC30A1F680E0ECCFCF93C82FB8
:103500008CE20E94411A882321F08C2FCF910C94D9
:10351000411A80E0CF910895CF93DF9300D000D07F
:10352000CDB7DEB70E942C19811102C00E9412197A
:1035300095E6998308C00E942D0C8FE39CE90197C2
:10354000F1F700C00000A981A150A983A111F3CF18
:1035500089E20E947E1A811110C18AE20E947E1ABD
:1035600081110E94121985E00E947E1A81110E9429
:103570001F1A0E94371980934C0287E00E947E1A1E
:10358000882371F08BE10E947E1A882309F4D1C050
:1035900090914C02892F8D7F91FF826080934C0225
:1035A00080914C020E943B190E94491990E090932F
:1035B0007E0280937D0280EE0E947E1A882341F075
:1035C00090917D02892F8E7F90FF816080937D0294
:1035D00089E30E947E1A882341F090917D02892F11
:1035E0008D7F91FF826080937D0282EE0E947E1A21
:1035F000882341F090917D02892F8B7F92FF846018
:1036000080937D0286EE0E947E1A882341F090917D
:103610007D02892F877F93FF886080937D0283EEF0
:103620000E947E1A882341F090917D02892F8F7E1F
:1036300094FF806180937D0285E30E947E1A882337
:1036400041F090917D02892F8F7D95FF806280935C
:103650007D0281E30E947E1A882341F090917D02D1
:10366000892F8F7B96FF806480937D0281E10E9489
:103670007E1A882341F090917D02892F97FB87F96C
:10368000805880937D0280917D020E944D1987E2CF
:103690000E947E1A89838EE10E947E1A882319F087
:1036A000B981B260B9838FE10E947E1A882319F034
:1036B00029812460298380E20E947E1A882319F0E0
:1036C00039813860398381E20E947E1A882319F09B
:1036D00049814061498382E20E947E1A882319F061
:1036E00059815062598383E20E947E1A882319F01F
:1036F00089818064898384E20E947E1A8823B1F1E3
:1037000099819068998389810E9444193981232F76
:1037100030E050E040E029833A834B835C83CA0168
:10372000B9010F900F900F900F90DF91CF910C94F3
:103730008B158EE00E947E1A882339F090914C02FE
:10374000892F8B7F92FF846029CF80E10E947E1AAF
:1037500090914C02882329F0892F877F93FF8860FE
:103760001DCF892F8E7F90FF816018CFA981A11175
:10377000CACF0E944019282FCBCF0F900F900F90E7
:103780000F90DF91CF9108958091500280FF12C079
:103790006091050185E0689FB001112475956795DA
:1037A0007595679560387105A8F561157105A1F1EA
:1037B000862F089581FF09C06091050185E0689F0B
:1037C000B001112475956795EDCF6091050182FDDB
:1037D0000AC0809151028823D1F090910401609138
:1037E0000501891728F085E0689FB0011124DACF20
:1037F000869FB001112485E0869F9001879F300D40
:103800001124692F70E0C9010E943C26CBCF65E0EE
:1038100070E0CECF8FE7089581E008958091500247
:1038200080FF0CC06091030170E0759567957595F8
:1038300067956115710549F1862F089581FF06C0CE
:103840006091030170E075956795F3CF6091030176
:1038500082FD0BC0909151029923A1F06091020169
:1038600080910301961738F0682F70E06038710579
:1038700000F38FE70895899FC001112470E00E9432
:103880003C26F4CF61E070E0D7CF81E00895803F1F
:1038900031F40E94C41B8195809354020895813FA6
:1038A00019F40E94C41BF8CF823F31F40E94C41B5C
:1038B0008195809353020895833F19F40E94C41B9D
:1038C000F8CF893F29F40E940E1C80935502089579
:1038D0008A3F21F40E940E1C8195F7CF8B3F31F473
:1038E0000E940E1C81958093560208958C3F19F416
:1038F0000E940E1CF8CF843F31F480915202816007
:10390000809352020895853F21F480915202826093
:10391000F7CF863F21F4809152028460F1CF873F38
:1039200021F4809152028860EBCF883F21F480918E
:1039300052028061E5CF8D3F31F480915002816069
:103940008093500208958E3F21F48091500282604E
:10395000F7CF8F3FB9F7809150028460F1CF9091FB
:103960005302803F41F48091540287FD109254022B
:10397000992371F00895813F29F48091540218161B
:10398000ACF3F6CF823F81F497FFF2CF109253024F
:103990008091540290915502892B90915602892B67
:1039A00049F7109251020895833F19F4191674F3E0
:1039B000DFCF893F39F4809155021816CCF610926A
:1039C0005502D6CF8A3F29F48091550287FFD0CF88
:1039D000F6CF8B3F39F48091560287FFC9CF109202
:1039E0005602C6CF8C3F29F4809156021816BCF3BC
:1039F000BFCF843F31F4809152028E7F8093520278
:103A0000B7CF853F21F4809152028D7FF7CF863F5B
:103A100021F4809152028B7FF1CF873F21F4809176
:103A20005202877FEBCF883F21F4809152028F7E34
:103A3000E5CF8D3F31F4809150028E7F809350020C
:103A400097CF8E3F21F4809150028D7FF7CF8F3F2B
:103A500009F08ECF809150028B7FF0CF82E592E00B
:103A60000E94080D0E94CB1990934F0280934E0242
:103A700008951F93CF93DF9300D000D000D0CDB72F
:103A8000DEB780914E0290914F020E94D719AC018F
:103A9000809151022091060130E0811106C02091F1
:103AA00007019AE0299F900111244217530788F0DB
:103AB00020915302A0915402A98310915502B09114
:103AC0005602BE8321110FC09A2F912B9B2B09F018
:103AD000B2C026960FB6F894DEBF0FBECDBFDF9101
:103AE000CF911F9108958F3F19F08F5F80935102FE
:103AF000121624F40E94C41B809353028091530237
:103B000087FF05C00E94C41B8195809353022981C1
:103B1000121624F40E94C41B809354028091540214
:103B200087FF05C00E94C41B819580935402809139
:103B30005302882309F455C0309154023D83332346
:103B400009F44FC0282F880F330B440B550B2983E2
:103B50003A834B835C83CA01B9010E94432523E366
:103B600033E343E35FE369837A838B839C836981D7
:103B70007A818B819C810E94A72569837A838B83BC
:103B80009C8369817A818B819C810E940B25609343
:103B900053028D81082E000C990BAA0BBB0B898355
:103BA0009A83AB83BC83BC01CD010E94432523E3F0
:103BB00033E343E35FE369837A838B839C83698187
:103BC0007A818B819C810E94A72569837A838B836C
:103BD0009C8369817A818B819C810E940B256093F3
:103BE0005402111624F40E940E1C809355028091F9
:103BF000550287FF05C00E940E1C819580935502D7
:103C00009E81191624F40E940E1C80935602809106
:103C1000560287FF05C00E940E1C819580935602B4
:103C200026960FB6F894DEBF0FBECDBFDF91CF91C1
:103C30001F910C942E1D8F3F09F057CF68CF85E060
:103C4000E2E5F2E0DF011D928A95E9F71092510258
:103C5000109250020895809177020895CF93DF93D8
:103C600000D00F92CDB7DEB720918302243019F532
:103C700023E029838A839B832093E9008FEF90912F
:103C8000E800815095FD06C095ED9A95F1F700008A
:103C90008111F5CF8091E80085FF0DC050E040E034
:103CA00063E070E0CE0101960E948B208091E800D5
:103CB0008E778093E8000F900F900F90DF91CF9157
:103CC0000895CF93DF9300D00F92CDB7DEB79C015C
:103CD00080918302843031F582E089832058310954
:103CE0003B832A8383E08093E9008FEF9091E80083
:103CF000815095FD06C095ED9A95F1F70000811170
:103D0000F5CF8091E80085FF0DC050E040E063E012
:103D100070E0CE0101960E948B208091E8008E77A2
:103D20008093E8000F900F900F90DF91CF9108954E
:103D3000209183022430F1F422E02093E9002FEF58
:103D40003091E800215035FD06C035ED3A95F1F788
:103D500000002111F5CF2091E80025FF0BC050E0B5
:103D600040E065E070E00E948B208091E8008E7753
:103D70008093E8000895CF93DF93D82FC92F8091C7
:103D800083028430F1F4909112019923E9F090912B
:103D90007D0297FF19C08093E9008FEF9091E800B2
:103DA000815095FD06C095E19A95F1F700008111CB
:103DB000F5CF8091E80050E040E060E270E085FDE2
:103DC0001AC0DF91CF91089581E08093E9008FEFD1
:103DD0009091E800815095FD06C095ED9A95F1F718
:103DE00000008111F5CF8091E80085FFEACF50E017
:103DF00040E068E070E08D2F9C2F0E948B20809126
:103E0000E8008E778093E80080E2ED2FFC2FA7E595
:103E1000B2E001900D928A95E1F7D3CF80918202B2
:103E2000811109C00E9413220E9470228091E20039
:103E300084608093E20008951092820208950895AC
:103E400008950C94951942E061EC81E00E948F2165
:103E500042E061EC82E00E948F2142E061EC83E06D
:103E60000E948F2142E261EC84E00C948F218091CA
:103E70008502893089F148F4823009F494C0833096
:103E800009F44FC0813041F008958A3009F47BC0B5
:103E90008B3009F461C0089580918402813A09F061
:103EA0003FC08091E800877F8093E800809188027E
:103EB00090918902892B61F460E287E592E070E0DD
:103EC0000E94DA208091E8008B778093E8000895C3
:103ED00060E090E080E0F3CF80918402813201F5D0
:103EE0008091880290918902009711F00397C1F4A4
:103EF0008091E800877F8093E8008091E80082FF4E
:103F00000BC08091F100809377028091E8008B775D
:103F10008093E8000C94C321809183028111EDCF3E
:103F2000089580918402813AD9F780918802909116
:103F30008902892BA9F78091E800877F8093E800A8
:103F40008091E80080FFFCCF809112018093F10006
:103F50008091E8008E77DCCF80918402813201F776
:103F60008091880290918902892BD1F68091E80096
:103F7000877F8093E8000E94C3218091860280930E
:103F800012010C94EC1180918402813249F68091E7
:103F9000E800877F8093E8000E94C3218091870218
:103FA00080937802089580918402813A09F0B8CF15
:103FB0008091E800877F8093E8008091E80080FF8F
:103FC000FCCF80917802C2CF84B7877F84BF0FB6C1
:103FD000F894A895809160008861809360001092A9
:103FE00060000FBE80E880936100109261000E9423
:103FF000400D0E9413220E9470228091E200846092
:104000008093E20078940E94F0240E94420D88E0A0
:1040100091E00E94EC0C80918302853019F00E949F
:10402000480DF9CF0E94521980918102882399F39B
:104030000E948019882379F30E947520ECCF9C019F
:10404000DA01892F992783309105C1F068F4813016
:10405000910509F445C0029761F48DE690E02CE5E6
:104060003EE02D933C93089581329105E1F08297D3
:1040700039F190E080E030E020E0F3CFC9019927EA
:10408000213059F08230910559F0E8E5FEE0892BA6
:1040900081F7849190E09F01E4CFE0E4FEE0F9CF66
:1040A000ECE2FEE0F6CF643020F7E62FF0E0EE0F12
:1040B000FF1FEC5CFE4F2081318189E090E0D1CF81
:1040C0006430B8F670E0FB01EE0FFF1FE45DFE4FB9
:1040D00020813181685D7E4FFB01808190E0C1CFFE
:1040E00082E190E029EC3EE0BCCF80E189BD82E135
:1040F00089BD09B400FEFDCF8091D8008F7D8093EB
:10410000D8008091E00082608093E0008091E00020
:1041100081FDFCCF0895AF92BF92CF92DF92FF92C4
:104120000F931F93CF93DF936C01EB018A010E94E1
:10413000E221F82E811123C00115110539F0F80193
:1041400080819181C81BD90BC80ED91EB12CA12C1E
:104150002097A9F08091E80085FD22C08091E800B9
:104160008E778093E80001151105A1F0F801808198
:104170009181A80EB91EB182A08285E0F82E8F2D04
:10418000DF91CF911F910F91FF90DF90CF90BF9063
:10419000AF9008950E94E2218823D1F2F82EEFCF4C
:1041A000F60181916F018093F1002197FFEFAF1A23
:1041B000BF0ACECFFC01CB0120918A0230918B0245
:1041C0002617370790F0009729F42091E8002E7702
:1041D0002093E80040E0009751F4411108C080911D
:1041E000E80082FF31C080E00895C901F3CF20913B
:1041F00083022223A9F12530A9F12091E80023FDB3
:104200002DC02091E80022FDEACF2091E80020FF98
:10421000E2CF3091F3002091F200009719F028309E
:10422000310558F041E02830310509F040E0209197
:10423000E8002E772093E800CECF41914093F10023
:1042400001972F5F3F4FE9CF80918302882341F090
:10425000853041F08091E80083FFC1CF81E008956F
:1042600082E0089583E00895FC01CB0120918A0249
:1042700030918B022617370790F0009729F4209190
:10428000E8002E772093E80040E0009751F44111B8
:1042900008C08091E80082FF32C080E00895C90123
:1042A000F3CF209183022223B1F12530B1F1209187
:1042B000E80023FD2EC02091E80022FDEACF2091E6
:1042C000E80020FFE2CF3091F3002091F200009748
:1042D00019F02830310558F041E02830310509F057
:1042E00040E02091E8002E772093E800CECF449163
:1042F0004093F100319601972F5F3F4FE8CF8091B7
:104300008302882341F0853041F08091E80083FFEB
:10431000C0CF81E0089582E0089583E00895982F4A
:10432000973028F08F708093E90081E00895909392
:10433000E900242F762F50E0981731F07091EC00AF
:104340002091ED005091F00021FD02C09F5FE8CF69
:104350003091EB003E7F3093EB003091ED003D7FDC
:104360003093ED003091EB0031603093EB007093AF
:10437000EC002093ED005093F0002091EE0027FD1B
:10438000E5CF80E008958091840287FF13C080917B
:10439000E80082FF06C08091E8008B778093E800F8
:1043A00004C0809183028111F2CF0895809183022D
:1043B0008823D9F38091E80080FFF8CF8091E8004E
:1043C0008E77ECCF2091E4003091E50095E6A901CD
:1043D0002091EC00822F817020FF06C08091E800C0
:1043E00080FF06C080E008952091E80022FD1AC0F9
:1043F00080918302882389F0853089F08091EB00D9
:1044000085FD0FC02091E4003091E500421753076D
:10441000F9F29150E1F684E0089582E0089583E096
:10442000089581E008950E9481220E948922E0EE91
:10443000F0E0808181608083E8EDF0E080818F771B
:10444000808319BCA7EDB0E08C918E7F8C93808126
:104450008F7E80831092820208950F931F93CF93D3
:10446000DF930E9481220E948922C8EDD0E08881DA
:104470008F77888388818068888388818F7D88830F
:1044800019BC1092830210927F0210928102109246
:10449000800200EE10E0F80180818B7F80838881AC
:1044A0008160888342E060E080E00E948F21E1EE3D
:1044B000F0E080818E7F8083E2EEF0E08081816099
:1044C0008083808188608083F80180818E7F8083F3
:1044D000888180618883DF91CF911F910F9108952A
:1044E000E8EDF0E080818F7E8083E7EDF0E0808171
:1044F0008160808384E082BF81E0809382020C949B
:104500002D22E8EDF0E080818E7F80831092E20022
:1045100008951092DA001092E10008951F920F9210
:104520000FB60F9211242F933F934F935F936F9386
:104530007F938F939F93AF93BF93EF93FF9380915C
:10454000E10082FF0BC08091E20082FF07C08091F2
:10455000E1008B7F8093E1000E94EF248091DA00DC
:1045600080FF19C08091D80080FF15C08091DA00CB
:104570008E7F8093DA008091D90080FF94C080E123
:1045800089BD82E189BD09B400FEFDCF81E0809341
:1045900083020E940E1F8091E10080FF19C080916C
:1045A000E20080FF15C08091E2008E7F8093E200E0
:1045B0008091E20080618093E2008091D800806267
:1045C0008093D80019BC85E0809383020E94201F4D
:1045D0008091E10084FF29C08091E20084FF25C022
:1045E00080E189BD82E189BD09B400FEFDCF8091E3
:1045F000D8008F7D8093D8008091E1008F7E8093DA
:10460000E1008091E2008F7E8093E2008091E200E1
:1046100081608093E20080917F02882309F449C081
:1046200084E0809383020E94211F8091E10083FF38
:1046300029C08091E20083FF25C08091E100877F3F
:104640008093E10082E08093830210927F02809148
:10465000E1008E7F8093E1008091E2008E7F809365
:10466000E2008091E20080618093E20042E060E03D
:1046700080E00E948F218091F00088608093F0009C
:104680000E941F1FFF91EF91BF91AF919F918F915A
:104690007F916F915F914F913F912F910F900FBE3E
:1046A0000F901F90189519BC109283020E941C1F36
:1046B00072CF8091E30087FD02C081E0B2CF83E03A
:1046C000B0CF1F920F920FB60F9211242F933F93EA
:1046D0004F935F936F937F938F939F93AF93BF930A
:1046E000CF93DF93EF93FF93D091E900DF70809138
:1046F000EC00C82FC17080FDC0E81092E9008091E5
:10470000F000877F8093F00078940E94A523109298
:10471000E9008091F00088608093F000CD2BCF708D
:10472000C093E900FF91EF91DF91CF91BF91AF91DD
:104730009F918F917F916F915F914F913F912F91B9
:104740000F900FBE0F901F9018951F93CF93DF937C
:10475000CDB7DEB7AA970FB6F894DEBF0FBECDBFB8
:1047600084E892E0FC0101962091F100208322E090
:104770008C389207B9F70E94371F8091E80083FFB9
:1047800016C180918402909185029A3008F00FC181
:10479000E92FF0E0EC53F94D0C945026803881F06D
:1047A000823809F004C1809188028F708093E900FB
:1047B0008091EB0085FB882780F91092E90006C004
:1047C0008091800290918102911182609091E80025
:1047D000977F9093E8008093F1001092F100809110
:1047E000E8008E77E0C0882309F4CEC0823009F05B
:1047F000DEC0809186028111D1C0809188028F70C5
:1048000009F4D5C08093E9002091EB0020FFC6C0D9
:10481000933031F48091EB0080628093EB00BEC056
:104820009091EB0090619093EB0021E030E001C0AB
:10483000220F8A95EAF72093EA001092EA0080910D
:10484000EB008860EACF8111B2C0109186021F7719
:104850008091E3008078812B8093E3008091E800D1
:10486000877F8093E8000E94C3218091E80080FF49
:10487000FCCF8091E30080688093E30082E0111117
:1048800083E08093830293C08058823008F08FC009
:1048900080918602909187028C3D23E09207A1F5DA
:1048A00083E08A838AE289834FB7F894DE01139606
:1048B00020E03EE051E2E32FF0E050935700E49116
:1048C00020FF03C0E295EF703F5FEF708E2F90E006
:1048D000EA30C0F0C7968D939D932F5F243159F72E
:1048E0004FBF8091E800877F8093E8006AE270E024
:1048F000CE0101960E94DA208091E8008B778093A8
:10490000E80055C0C096E7CFAE014F5F5F4F6091A2
:1049100088020E941F20BC01892B09F448C08091A5
:10492000E800877F8093E80089819A810E94342182
:10493000E3CF8038E1F58091E800877F8093E8003D
:1049400080917F028093F1004ACF811130C0909115
:104950008602923060F58091E800877F8093E800BE
:1049600090937F020E94C32180917F02882311F0DF
:1049700084E005C08091E30087FDFACF81E0809359
:1049800083020E94231F13C080918602813079F434
:1049900081E0933009F080E0809381021092E90079
:1049A0008091E800877F8093E8000E94C321809176
:1049B000E80083FF0AC08091E800877F8093E800C9
:1049C0008091EB0080628093EB00AA960FB6F8947A
:1049D000DEBF0FBECDBFDF91CF911F910895089527
:1049E000CF93809183028823A1F0C091E900CF701A
:1049F0009091EC00892F817090FD80E8C82B109277
:104A0000E9008091E80083FD0E94A523CF70C09348
:104A1000E900CF9108950E9412256894B1110C9479
:104A2000A12508950E94862588F09F5798F0B92FF8
:104A30009927B751B0F0E1F0660F771F881F991FD3
:104A40001AF0BA95C9F714C0B13091F00E94A025B0
:104A5000B1E008950C94A025672F782F8827B85FC0
:104A600039F0B93FCCF3869577956795B395D9F72B
:104A70003EF490958095709561957F4F8F4F9F4F35
:104A80000895E89409C097FB3EF490958095709541
:104A900061957F4F8F4F9F4F9923A9F0F92F96E98A
:104AA000BB279395F695879577956795B795F111FF
:104AB000F8CFFAF4BB0F11F460FF1BC06F5F7F4F9C
:104AC0008F4F9F4F16C0882311F096E911C07723AE
:104AD00021F09EE8872F762F05C0662371F096E8B7
:104AE000862F70E060E02AF09A95660F771F881F86
:104AF000DAF7880F9695879597F9089557FD90589E
:104B0000440F551F59F05F3F71F04795880F97FB91
:104B1000991F61F09F3F79F087950895121613064B
:104B20001406551FF2CF4695F1DF08C0161617067A
:104B30001806991FF1CF86957105610508940895AF
:104B4000E894BB2766277727CB0197F908950E9441
:104B5000BA250C942B260E941D2638F00E9424268C
:104B600020F0952311F00C9414260C941A2611248D
:104B70000C94A1250E947E2570F3959FC1F3950F9B
:104B800050E0551F629FF001729FBB27F00DB11DD1
:104B9000639FAA27F00DB11DAA1F649F6627B00D61
:104BA000A11D661F829F2227B00DA11D621F739F4A
:104BB000B00DA11D621F839FA00D611D221F749F58
:104BC0003327A00D611D231F849F600D211D822F9F
:104BD000762F6A2F11249F5750409AF0F1F08823C6
:104BE0004AF0EE0FFF1FBB1F661F771F881F9150F3
:104BF0005040A9F79E3F510580F00C9414260C9468
:104C0000A1255F3FE4F3983ED4F3869577956795A9
:104C1000B795F795E7959F5FC1F7FE2B880F911D1C
:104C20009695879597F9089597F99F6780E870E0C2
:104C300060E008959FEF80EC089500240A94161612
:104C4000170618060906089500240A94121613067A
:104C5000140605060895092E0394000C11F4882308
:104C600052F0BB0F40F4BF2B11F460FF04C06F5F24
:104C70007F4F8F4F9F4F089597FB072E16F4009498
:104C800007D077FD09D00E94562607FC05D03EF4D8
:104C9000909581959F4F0895709561957F4F0895E8
:104CA000EE0FFF1F0590F491E02D0994AA1BBB1B8A
:104CB00051E107C0AA1FBB1FA617B70710F0A61B1C
:104CC000B70B881F991F5A95A9F780959095BC013D
:104CD000CD010895F999FECF92BD81BDF89A99272B
:104CE00080B50895A8E1B0E042E050E00C9492262F
:104CF000262FF999FECF92BD81BDF89A019700B495
:104D0000021639F01FBA20BD0FB6F894FA9AF99A34
:104D10000FBE08950196272F0E9479260C947826BD
:104D2000DC01CB01FC01F999FECF06C0F2BDE1BD6B
:104D3000F89A319600B40D9241505040B8F708955A
:104D4000F894FFCFEE08FA08FE08020906090A09DE
:104D50000E09120916091A091E09220926092A092B
:104D60002E09320936093A09970F970FEF0FEF0F07
:104D700033104F10C70FC70F5A10C70F221122113F
:104D80008D11C70FC70F9611CE23F323D724F3231A
:0C4D9000D72423244424D7249924A524EC
:104D9C0029022808140A321E2B1EBB1E981E611EE7
:104DAC002E1E01676636353497969430F037F190A5
:104DBC00F491F592F693F795404D3639970F4A0FCB
:0C4DCC00140FDB0E6E0E870EA00EB90E49
:00000001FF
